:060000000A128A11122809
:10000800FE00030EF5000408F6000A08F700831244
:1000180003137F08F8000A168A11012A0A128A11A6
:100028001528F901FA01FB01FC01831363308400F0
:100038006D300A168A11E8210A128A11C23084002A
:10004800E2300A168A11E8210A128A1183179030C1
:100058008400D0300A168A11E8210A128A11503019
:10006800FD001330FE002A30FF00103084000A160D
:100078008A11F42183010A128A150D2D803083120A
:100088000313A0002530A1000A168A11F6230A12CC
:100098008A1183160313B201B301AE01AF01B8018F
:1000A800B9013908803AFF0080307F02031D5E28BD
:1000B8000730380203188C28303083120313DB0012
:1000C800831603133808A73E8400831203135B08C2
:1000D800831380003030DB00831603133808A03EFA
:1000E8008400831203135B08800001308316031316
:1000F800B8070318B90A0030B9073908803AFF0071
:1001080080307F02031D8A2807303802031C6028CC
:1001180083120313A50101300A168A11AF230A12AC
:100128008A11013083160313AE070318AF0A003093
:10013800AF070A168A111B220A128A11243A031DD4
:100148009528093083120313DC001C30DB00DB0B1D
:10015800AB28DC0BAB2800000A168A111B220A12F6
:100168008A11473A031DC829093083120313DC009A
:100178001C30DB00DB0BBE28DC0BBE2800000A1697
:100188008A111B220A128A11503A031DC829093004
:1001980083120313DC001C30DB00DB0BD128DC0BE3
:1001A800D12800000A168A111B220A128A11563A0F
:1001B800031DC829093083120313DC001C30DB003F
:1001C800DB0BE428DC0BE42800000A168A111B224A
:1001D8000A128A11543A031DC829093083120313DD
:1001E800DC001C30DB00DB0BF728DC0BF7280000F9
:1001F8000A168A111B220A128A11473A031DC829B6
:10020800093083120313DC001C30DB00DB0B0A29E6
:10021800DC0B0A29000083160313B001B101310871
:10022800803AFF0080307F02031D1C2946303002CF
:100238000318C829093083120313DC001C30DB00C3
:10024800DB0B2429DC0B242900000A168A111B2247
:100258000A128A112C3A031DBF2901308316031391
:10026800B2070318B30A0030B30705303206330467
:10027800031D7B29B401B5013508803AFF008030A1
:100288007F02031D49290730340203187B290930EE
:1002980083120313DC001C30DB00DB0B5129DC0B61
:1002A800512900000A168A111B220A128A11831288
:1002B8000313DB00831603133408A03E8400831263
:1002C80003135B0883138000013083160313B407FC
:1002D8000318B50A0030B5073508803AFF008030AA
:1002E8007F02031D792907303402031C4B2906308D
:1002F8008316031332063304031DBF29B601B70161
:100308003708803AFF0080307F02031D8D290730AF
:1003180036020318BF29093083120313DC001C308E
:10032800DB00DB0B9529DC0B952900000A168A11E6
:100338001B220A128A1183120313DB00831603138C
:100348003608A73E8400831203135B0883138000DA
:10035800013083160313B6070318B70A0030B7072E
:100368003708803AFF0080307F02031DBD2907301F
:100378003602031C8F29013083160313B0070318B4
:10038800B10A0030B107132983160313B201B30170
:1003980083120313A50101300A168A11AF230A122A
:1003A8008A1183120313AC0100300A168A116122E4
:1003B8000A128A11193083120313AC008930AD0078
:1003C8000A128A15B1210A128A1183120313AC0189
:1003D800AC0A00300A168A1161220A128A111F30EB
:1003E80083120313AC008930AD000A128A15B121BB
:1003F8000A128A1183160313BA01BB01232A831236
:100408000313AC01831603133A08053E0A168A1132
:1004180061220A128A11831603133A08A73E840040
:10042800831300080A168A11B9220A128A110130A8
:1004380083160313BA070318BB0A0030BB073A0830
:10044800A73E84002C30831300060319362A3B0884
:10045800803AFF0080307F02031D342A07303A02B9
:10046800031C032A83160313BC01BD015C2A8312F3
:100478000313AC01AC0A831603133C08053E0A16A5
:100488008A1161220A128A11831603133C08A03EBE
:100498008400831300080A168A11B9220A128A11E5
:1004A800013083160313BC070318BD0A0030BD07CB
:1004B8003C08A03E84002C308313000603196F2AE1
:1004C8003D08803AFF0080307F02031D6D2A073007
:1004D8003C02031C3B2A83160313C001C1014108D7
:1004E800803AFF0080307F02031D7C2A07304002DB
:1004F8000318AC2A831603134008A73E84002E3045
:1005080083130006031D992A4108803AFF008030B2
:100518007F02031D912A01304002031C992A831689
:1005280003134108C5004008C400013083160313B3
:10053800C0070318C10A0030C1074108803AFF000C
:1005480080307F02031DAA2A07304002031C7E2A3E
:1005580002308316031344064504031DFC2B44088C
:10056800FF3EA73E840083130008D03E8312031386
:10057800A000FF3003180030A1000A30A2000030AC
:10058800A3000A168A113E220A128A11831603133F
:100598004408FE3EA73E8400831300088312031319
:1005A8002007DB0021080318210ADC005B08D03E85
:1005B80083160313C200831203135C080318013E59
:1005C800FF3E83160313C3004308803AFF008030C0
:1005D8007F02031DF12A1F304202031CFC2B01304D
:1005E80083160313C6070318C70A0030C7071A3053
:1005F80083120313DD005E30DC008630DB00DB0B8A
:10060800032BDC0B032BDD0B032B000083120313DE
:10061800A50101300A168A11AF230A128A11831222
:100628000313AC0100300A168A1161220A128A11DA
:10063800073083120313AC008930AD000A128A1503
:10064800B1210A128A1183120313AC01AC0A0130DA
:100658000A168A1161220A128A115530831203136D
:10066800AC008730AD000A128A15B1210A128A112E
:10067800023083120313DB005B08AC0002300A1659
:100688008A1161220A128A11EE3083120313AC0018
:100698008730AD000A128A15B1210A128A11033077
:1006A80083120313DB005B08AC0002300A168A11C0
:1006B80061220A128A112D3083120313AC0088308C
:1006C800AD000A128A15B1210A128A110330831269
:1006D8000313DB005B08AC000F300A168A11612295
:1006E8000A128A1183160313470883120313AD00F5
:1006F80083160313460883120313AC00AE01AE0A37
:100708000A128A1131250A128A110030831603133E
:100718004702053003194602031CEC2BB430831240
:100728000313A1008830A2000A128A11DB250A12DD
:100738008A110D300A168A11D8210A128A111A3024
:1007480083120313DD005E30DC008630DB00DB0B38
:10075800AB2BDC0BAB2BDD0BAB2B0000DC3083129F
:100768000313A1008630A2000A128A11DB250A129F
:100778008A111A3083120313DD005E30DC008630E4
:10078800DB00DB0BC52BDC0BC52BDD0BC52B000001
:10079800643083120313A1008630A2000A128A1162
:1007A800DB250A128A111A300A168A11D8210A1270
:1007B8008A111A3083120313DD005E30DC008630A4
:1007C800DB00DB0BE52BDC0BE52BDD0BE52B000061
:1007D8001A3083120313DD005E30DC008630DB0044
:1007E800DB0BF42BDC0BF42BDD0BF42B00000800E7
:1007F8008316031344034504031DC82C4308803A99
:10080800FF0080307F02031D0B2C053042020318C5
:10081800C82C83120313A50101300A168A11AF23CD
:100828000A128A1183120313AC0100300A168A11C6
:1008380061220A128A11AD3083120313AC0087308B
:10084800AD000A128A15B1210A128A118312031304
:10085800AC01AC0A00300A168A1161220A128A1108
:10086800CE3083120313AC008730AD000A128A150C
:10087800B1210A128A11023083120313DB005B08CC
:10088800AC0000300A168A1161220A128A1142301D
:1008980083120313AC008730AD000A128A15B12108
:1008A8000A128A11033083120313DB005B08AC00C1
:1008B80000300A168A1161220A128A112B3083121B
:1008C8000313AC008930AD000A128A15B1210A124F
:1008D8008A11B43083120313A1008830A2000A12CF
:1008E8008A11DB250A128A110D300A168A11D821BD
:1008F8000A128A111A3083120313DD005E30DC00FD
:100908008630DB00DB0B862CDC0B862CDD0B862C83
:100918000000DC3083120313A1008630A2000A1203
:100928008A11DB250A128A111A3083120313DD009B
:100938005E30DC008630DB00DB0BA02CDC0BA02C4F
:10094800DD0BA02C0000403083120313A100863079
:10095800A2000A128A11DB250A128A111A300A1615
:100968008A11D8210A128A111A3083120313DD0062
:100978005E30DC008630DB00DB0BC02CDC0BC02CCF
:10098800DD0BC02C00000800643083120313A000A4
:100998000030A100831603132F0883120313A3004A
:1009A800831603132E0883120313A2000A168A1152
:1009B8003E240A128A118312031320082104031DFE
:1009C80095283330DD00BC30DC001030DB00DB0B59
:1009D800EB2CDC0BEB2CDD0BEB2C83160313BE018D
:1009E800BF013F08803AFF0080307F02031DFE2CC4
:1009F80007303E020318262D831603133E08A73E30
:100A080084008313000883120313DB008316031387
:100A18003E08DB3E8400831203135B08800001302C
:100A280083160313BE070318BF0A0030BF073F0829
:100A3800803AFF0080307F02031D242D07303E02DC
:100A4800031C002D0A168A11E3240A128A110A12BD
:100A58008A1574220A128A1195283130840083126B
:100A68000313630883138000840A64088000840ADF
:100A780065088000840A66088000840A6708800088
:100A88000430B8000030B900B601B701AD1F5B2DC6
:100A9800A501A50A2D300A168A11AF230A128A1158
:100AA80083120313AC09AD09AC0A0319AD0A2C086B
:100AB8002D040319902D0A30A0000030A1002D0844
:100AC800A3002C08A2000A168A113E240A128A11D1
:100AD800831203132008AF003808313E84002F0822
:100AE800831380000A30A0000030A1002D08A30065
:100AF8002C08A2000A128A1556210A128A1183129A
:100B080003132108AD002008AC00FF30B807031814
:100B1800B90AFF30B9075B2D2E0A03199A2DA22DA9
:100B28000130B6070318B70A0030B7073608313E58
:100B3800840083130008031DB42D942D2E08AF00E4
:100B4800B001AF1BB003AF09B009AF0A0319B00A6F
:100B58002F08053EB60030080318013E003EB700D6
:100B68003708B9003608B8003908803AFF008030E5
:100B78007F02031DC12D05303802031808008312B7
:100B88000313A501A50A3808313E84008313000821
:100B9800303E0A168A11AF230A128A1101308312D5
:100BA8000313B8070318B90A0030B907B82D831220
:100BB80003132208FF00210884000A128A15412124
:100BC8000A128A11003A0319080083120313220833
:100BD800FF00210884000A128A1541210A128A118D
:100BE8000A168A11D8210A128A11013083120313B6
:100BF800A1070318A20ADB2D413454342B3448349E
:100C080054345434503450344134523441343D34E3
:100C18002234553452344C3422342C34223468343F
:100C28007434743470343A342F342F3431343934C2
:100C380032342E343234343438342E34313432347D
:100C48002E3439342F347E347334313434343434DC
:100C58003134383436342F3474346534733474345E
:100C68002E347034683470343F34733470346534DF
:100C7800653464343D34003456346534683469343A
:100C880063346C3465342034533474346F347034C2
:100C9800203469346E3464346934633461347434B0
:100CA80065346434203469346E3420344434653413
:100CB80076346934633465345F3430343134003425
:100CC80048346934673468342034533470346534B4
:100CD800653465346434203469346E34643469347A
:100CE80063346134743465346434203469346E3464
:100CF80020344434653476346934633465345F347D
:100D0800303431340034413454342B345334413486
:100D18005034423452343D3433342C3431342C344E
:100D2800223443344F344E345434593450344534D7
:100D380022342C342234473450345234533422343D
:100D480000344634693472346534203449346E349E
:100D580064346934633461347434653464342034FD
:100D680069346E34203444346534763469346334F9
:100D780065345F34303431340034413454342B34E6
:100D8800533441345034423452343D3433342C34A7
:100D980031342C342234413450344E3422342C34FF
:100DA800223443344D344E344534543422340034E0
:100DB800413454342B3443344D34473453343D3464
:100DC80022342B34393434343734313432343434F3
:100DD8003134393436343134383422340D34003433
:100DE8005734613469347434203446346F3472347F
:100DF8002034413473347334693473347434613453
:100E08006E3463346534003432342E3444346F34F1
:100E18006E3427347434203466346F347234673453
:100E28006534743420347334653461347434003474
:100E380045344C3453342034773469346C346C344E
:100E48002034743461346B34653420346334613451
:100E580072346534003431342E3448346F3470348D
:100E68006534203479346F34753420346134723405
:100E7800653420346E346F3474340034573461343C
:100E880069347434203466346F3472342034453411
:100E98006D3465347234673465346E346334793450
:100EA800003457346834613474342734733420344C
:100EB8007434683465342034683475347234723468
:100EC800793421340034483461347634653420343C
:100ED80061342034733461346634653420346434C6
:100EE8007234693476346534003444346534763485
:100EF8006934633465342034773469346C346C3441
:100F080020347334743461347234743400344634A5
:100F1800693472346534203449346E346434693445
:100F280063346134743465346434213421340034D6
:100F3800533465346E34643469346E346734203421
:100F4800443461347434613420347634693461341F
:100F5800003459346F347534203461347234653454
:100F6800203474346F346F34203473346C346F34F9
:100F780077340034413454342B34483454345434A2
:100F8800503441344334543449344F344E343D346E
:100F98003034003448346134763469346E3467341C
:100FA8002034543472346F34753462346C3465349C
:100FB8003F340034533465346E34643469346E34E9
:100FC800673420344D346534733473346134673492
:100FD800653400344C346534743427347334203425
:100FE80073346C346F347734203464346F3477342A
:100FF8006E3400344C3465347434273473342034FC
:101008006C3469347334743465346E342034743415
:101018006F34003450346C3465346134733465345F
:101028002034533474346134793420344F34753473
:10103800743400345434753472346E3469346E3414
:1010480067342034473453344D3420344F344E34CD
:1010580000345734613472346E3469346E34673412
:1010680020344E346F342E3420343A340034413432
:1010780054342B34533441345034423452343D3494
:1010880031342C3431340034463472346F346D3496
:101098002034563465346834693463346C346534C8
:1010A8000034533465346E34643469346E346734D0
:1010B80020344F3476346534723400344D3465341A
:1010C800733473346134673465342034533465348D
:1010D8006E347434003454346F34203445346D34F1
:1010E80065347234673465346E346334793400346B
:1010F800413454342B3448345434543450344934FF
:101108004E34493454340034473453344D34203445
:10111800523475346E346E3469346E346734003446
:101128004C3469346634653420345334613476344D
:10113800653472340034453478347034723465342C
:101148007334733477346134793400344734503429
:10115800523453342E342E342E342E342E3400345C
:10116800413454342B3443344D34473446343D34BD
:1011780031340034413454342B344334473441340B
:10118800543454343F34003474346834653420346F
:1011980052346134643469346F34003426346C3426
:1011A8006F346E34673461343D34003453346C34F6
:1011B80065346534703479343F34003457346534D9
:1011C8006C3463346F346D3465340034733465348F
:1011D80063346F346E3464347334003426346C34BE
:1011E8006134743461343D340034413454342B3424
:1011F80043345334513400346F34663420347934F2
:101208006F34753400344F344F34503453342134F0
:1012180000344C346F346E3420343A3400344C3457
:101228006134743420343A3400344B346D347034BF
:1012380068343A3400344B346E346F3474343A348E
:1012480000346434723475346E346B34003455347D
:101258006E346934743473340034623465346C34F5
:1012680074347334003469346E34203400343A34BE
:101278002934003454346F340034FF1B4B29831352
:101288007F1883170008840A0319FF0A08007F08DB
:0E1298007F398A000408840A0319FF0A8200C5
:1012AC0083120313A601A11F6229A009A109A00A98
:1012BC000319A10AA601A60AA31F6D29A209A30955
:1012CC00A20A0319A30A0130A4002408A606A70148
:1012DC00A801200821040319A429A501A50AA11B12
:1012EC00832901300310A00DA10DFF3E031D7829A9
:1012FC000130A4002408A507752901300310A70D9F
:10130C00A80DFF3E031D842921082302031D9029EB
:10131C0020082202031C99292008A2022108031C80
:10132C00A303A302271401300310A10CA00CFF3E51
:10133C00031D9A290130A502031D832926080319D0
:10134C00AC29A709A809A70A0319A80A2808A1000B
:10135C002708A0000800831203132D08FF002C0897
:10136C0084000A128A1541210A128A15003A0319BF
:10137C000800831203132D08FF002C0884000A12A6
:10138C008A1541210A128A15253A031DF3290130C9
:10139C00AC070318AD0A2D08FF002C0884000A12B4
:1013AC008A1541210A128A15D03EAE002E08AF00D4
:1013BC00AF1BE9292F08803A783E0318E929A501CB
:1013CC00A50A2F08002A83120313A501A50A2530AC
:1013DC000A168A11AF230A128A1583120313A50168
:1013EC00A50A2D08FF002C0884000A128A15412139
:1013FC000A128A150A168A11AF230A128A150130AD
:10140C0083120313AC070318AD0AB129831203131B
:10141C00AE00C330AD00CD30AC00AC0B132AAD0B1D
:10142C00132AF03083120313AC002C088316031319
:10143C008805081308128812F03083120313AC00CD
:10144C002C0888050813881208122C2A83120313FF
:10145C0008178814312A322A000083120313081348
:10146C00372A382A00000A168A118B240A128A1588
:10147C0083120313A50128300A168A11AF230A120E
:10148C008A1583120313A5012E080C380A168A112B
:10149C00AF230A128A1583120313A50140300A16D2
:1014AC008A11AF230A128A1583120313AF0140303D
:1014BC002F0203180800A501A50A2F08103E84006E
:1014CC00831700080A168A11AF230A128A150130F5
:1014DC0083120313AC002C08AF075D2A831203138D
:1014EC00D701D801C901CA01013083120313C907FE
:1014FC000318CA0A0030CA070A168A111B220A12DC
:10150C008A15243A031D7A2A093083120313B40076
:10151C001C30B300B30B902AB40B902A00000A16AF
:10152C008A111B220A128A15473A031DD32B093044
:10153C0083120313B4001C30B300B30BA32AB40BF7
:10154C00A32A00000A168A111B220A128A15503A85
:10155C00031DD32B093083120313B4001C30B300CA
:10156C00B30BB62AB40BB62A00000A168A111B223A
:10157C000A128A15473A031DD32B09308312031321
:10158C00B4001C30B300B30BC92AB40BC92A000039
:10159C000A168A111B220A128A15473A031DD32BED
:1015AC00093083120313B4001C30B300B30BDC2AD4
:1015BC00B40BDC2A00000A168A111B220A128A15A7
:1015CC00413A031DD32B093083120313B4001C3092
:1015DC00B300B30BEF2AB40BEF2A000083120313F2
:1015EC00CD01CE014E08803AFF0080307F02031DF2
:1015FC00012B46304D020318D32B093083120313F1
:10160C00B4001C30B300B30B092BB40B092B000036
:10161C000A168A111B220A128A152C3A031DCA2B90
:10162C00013083120313D7070318D80A0030D807E8
:10163C00023057065804031D5A2BCF01D001500815
:10164C00803AFF0080307F02031D2E2B09304F02A1
:10165C0003185A2B093083120313B4001C30B30047
:10166C00B30B362BB40B362B00000A168A111B2237
:10167C000A128A1583120313B3004F08403E8400EC
:10168C003308831380000130CF070318D00A0030D1
:10169C00D0075008803AFF0080307F02031D582B82
:1016AC0009304F02031C302B0330831203135706EF
:1016BC005804031D742B0930B4001C30B300B30B59
:1016CC00652BB40B652B00000A168A111B220A121B
:1016DC008A1583120313B3003308CB00043057066A
:1016EC005804031DB02BD101D2015208803AFF00DF
:1016FC0080307F02031D842B0A3051020318B02B5B
:10170C00093083120313B4001C30B300B30B8C2BC1
:10171C00B40B8C2B00000A168A111B220A128A1594
:10172C0083120313B3005108363E8400330883132D
:10173C0080000130D1070318D20A0030D2075208BA
:10174C00803AFF0080307F02031DAE2B0A3051021D
:10175C00031C862B05308312031357065804031DF4
:10176C00CA2B0930B4001C30B300B30BBB2BB40B29
:10177C00BB2B00000A168A111B220A128A1583122F
:10178C000313B3003308CC00013083120313CD07CD
:10179C000318CE0A0030CE07F82A83120313D701A0
:1017AC00D8010230B3003308AC0000300A168A119D
:1017BC0061220A128A15133083120313AC0089308C
:1017CC00AD000A128A15B1210A128A150330831250
:1017DC000313B3003308AC0000300A168A116122DF
:1017EC000A128A150D3083120313AC008930AD0038
:1017FC000A128A15B1210A128A15023083120313B8
:10180C00B3003308AC0011300A168A1161220A1297
:10181C008A15831203134B080A168A11B9220A126D
:10182C008A15033083120313B3003308AC00113054
:10183C000A168A1161220A128A15831203134C08A4
:10184C000A168A11B9220A128A1583120313D301BC
:10185C00D4015408803AFF0080307F02031D382CDD
:10186C00093053020318662C023083120313B300A1
:10187C003308AC005308053E0A168A1161220A127D
:10188C008A15831203135308403E84008313000807
:10189C000A168A11B9220A128A150130831203130F
:1018AC00D3070318D40A0030D4075408803AFF0039
:1018BC0080307F02031D642C09305302031C3A2C28
:1018CC0083120313D501D6015608803AFF008030ED
:1018DC007F02031D732C093055020318A12C033011
:1018EC0083120313B3003308AC005508053E0A16E7
:1018FC008A1161220A128A15831203135508363E87
:10190C008400831300080A168A11B9220A128A1558
:10191C00013083120313D5070318D60A0030D607FB
:10192C005608803AFF0080307F02031D9F2C09303F
:10193C005502031C752C643083120313A000003075
:10194C00A1004A08A3004908A2000A168A113E24E5
:10195C000A128A158312031320082104031D7A2A04
:10196C003330B500BC30B4001030B300B30BBC2C1A
:10197C00B40BBC2CB50BBC2C83120313D901DA01AC
:10198C005A08803AFF0080307F02031DCF2C0A30AA
:10199C0059020318092D831203135A08803AFF00C9
:1019AC0080307F02031DDC2C093059020318EB2C0C
:1019BC00831203135908403E840083130008B300BC
:1019CC005908D23E8400330880008312031359084F
:1019DC00363E840083130008B3005908C83E8400C7
:1019EC00330880000130D9070318DA0A0030DA070F
:1019FC005A08803AFF0080307F02031D072D0A3001
:101A0C005902031CD12C0A168A11542608000030E6
:101A1C000A128A150C220A128A1503308312031338
:101A2C00E0008A30DF005630DE00DE0B1B2DDF0BB2
:101A3C001B2DE00B1B2D222D83120313A50101304E
:101A4C000A168A11AF230A128A150A168A11EF2276
:101A5C000A128A1583120313AC0106300A168A1176
:101A6C0061220A128A15E23083120313AC0088300B
:101A7C00AD000A128A15B1210A128A1583120313BA
:101A8C00AC01AC0A09300A168A1161220A128A15B5
:101A9C003E3083120313AC008930AD000A128A1554
:101AAC00B1210A128A15023083120313DE005E087C
:101ABC00AC0005300A168A1161220A128A159F3071
:101ACC0083120313AC008830AD000A128A15B121C1
:101ADC000A128A15033083120313DE005E08AC0071
:101AEC0005300A168A1161220A128A159430831263
:101AFC000313AC008830AD000A128A15B1210A120A
:101B0C008A154D3083120313E0001930DF009A3030
:101B1C00DE00DE0B8F2DDF0B8F2DE00B8F2D962D26
:101B2C0083120313A50101300A168A11AF230A127E
:101B3C008A15023083120313DE005E08AC000230FB
:101B4C000A168A1161220A128A151E308312031397
:101B5C00AC008830AD000A128A15B1210A128A1520
:101B6C008316031306108312031306143330E0009C
:101B7C00BC30DF001030DE00DE0BC22DDF0BC22DBF
:101B8C00E00BC22D831203130610A50101300A16B7
:101B9C008A11AF230A128A15023083120313DE0056
:101BAC005E08AC0004300A168A1161220A128A15EA
:101BBC00883083120313AC008830AD000A128A15EA
:101BCC00B1210A128A150D3083120313E000AF30D5
:101BDC00DF00C130DE00DE0BF12DDF0BF12DE00B51
:101BEC00F12D000083120313A50101300A168A118E
:101BFC00AF230A128A1583120313AC0100300A16A4
:101C0C008A1161220A128A152F3083120313AC0039
:101C1C008730AD000A128A15B1210A128A15831277
:101C2C000313AC01AC0A00300A168A1161220A12A5
:101C3C008A15253083120313AC008930AD000A12CB
:101C4C008A15B1210A128A15023083120313DE00A1
:101C5C005E08AC0000300A168A1161220A128A153D
:101C6C00083083120313AC008730AD000A128A15BA
:101C7C00B1210A128A15033083120313DE005E08A9
:101C8C00AC0000300A168A1161220A128A15313012
:101C9C0083120313AC008930AD000A128A15B121EE
:101CAC000A128A154D3083120313E0001930DF003D
:101CBC009A30DE00DE0B602EDF0B602EE00B602E08
:101CCC00672E83120313A50101300A168A11AF2364
:101CDC000A128A1583120313AC0100300A168A11FA
:101CEC0061220A128A15DA3083120313AC00883091
:101CFC00AD000A128A15B1210A128A150A168A1128
:101D0C00EF220A128A15033083120313E0008A3083
:101D1C00DF005630DE00DE0B912EDF0B912EE00B38
:101D2C00912E982E83120313AC01AC0A00300A16C4
:101D3C008A1161220A128A15FE3083120313AC0039
:101D4C008730AD000A128A15B1210A128A150230A9
:101D5C0083120313DE005E08AC0000300A168A11F1
:101D6C0061220A128A15C83083120313AC00883022
:101D7C00AD000A128A15B1210A128A154D30831250
:101D8C000313E0001930DF009A30DE00DE0BCC2E9E
:101D9C00DF0BCC2EE00BCC2ED32E83120313A5011C
:101DAC0001300A168A11AF230A128A158312031303
:101DBC00AC0100300A168A1161220A128A156730AA
:101DCC0083120313AC008730AD000A128A15B121BF
:101DDC000A128A1583120313AC01AC0A00300A16DE
:101DEC008A1161220A128A153B3083120313AC004C
:101DFC008930AD000A128A15B1210A128A150230F7
:101E0C0083120313DE005E08AC0000300A168A1140
:101E1C0061220A128A151C3083120313AC0087301E
:101E2C00AD000A128A15B1210A128A1503308312E9
:101E3C000313DE005E08AC0000300A168A11612222
:101E4C000A128A15003083120313AC008930AD00DE
:101E5C000A128A15B1210A128A154D308312031306
:101E6C00E0001930DF009A30DE00DE0B3B2FDF0B79
:101E7C003B2FE00B3B2F422F1E3083120313E1004C
:101E8C000030E2006208803AFF0080307F02031DC0
:101E9C00512F01306102031CE22F83120313A501A1
:101EAC0001300A168A11AF230A128A158312031302
:101EBC00AC0101300A168A1161220A128A15793096
:101ECC0083120313AC008730AD000A128A15B121BE
:101EDC000A128A1583120313AC01AC0A07300A16D6
:101EEC008A1161220A128A15373083120313AC004F
:101EFC008930AD000A128A15B1210A128A15831293
:101F0C000313AC01AC0A0A300A168A1161220A12B8
:101F1C008A15831203136208AD006108AC0002300D
:101F2C00DE005E08AE000A128A1131250A128A15EB
:101F3C00023083120313DE005E08AC0006300A1672
:101F4C008A1161220A128A15EA3083120313AC003B
:101F5C008830AD000A128A15B1210A128A151A307E
:101F6C0083120313E0005E30DF008630DE00DE0BF0
:101F7C00BD2FDF0BBD2FE00BBD2F00008312031311
:101F8C0061036204031DCF2F0A168A11EF220A1275
:101F9C008A15FF3083120313E1070318E20AFF309E
:101FAC00E2076208803AFF0080307F02031DE02FB9
:101FBC00013061020318532F83120313A501013062
:101FCC000A168A11AF230A128A150A128A114220A4
:101FDC000A128A151A3083120313E0005E30DF00F8
:101FEC008630DE00DE0BF82FDF0BF82FE00BF82F1E
:041FFC000000EB2FC7
:1023B00083120313A0000C1EDB29200899000800DB
:1023C0008130831203139F00831603139F010800BB
:1023D00064008001840A0406031900340406E92914
:1023E0007E088A007F088200F0210A168A11800088
:1023F000840A04087D0603190034FF0A0319FE0A43
:10240000F429831603138C1E0E2A831203138C1EC9
:102410000E2A0A168A116A230A168A11780883126C
:102420000313FF0077088A0076088400750E830086
:10243000FE0E7E0E09007C0A031D202A00300800D3
:102440007C08903E84008317000883120313A000C9
:102450002008A1007C087B06031D342AFF30FB0006
:10246000A0002008FC003C2A0130A0002008FC0746
:1024700040307C060319FC01210808008312031375
:10248000A401A501201C4A2A2208A4070318A50AB2
:102490002308A50701300310A20DA30DFF3E031D65
:1024A0004B2A01300310A10CA00CFF3E031D522A41
:1024B00020082104031D422A2508A1002408A000A9
:1024C000080083120313AE0014302E020318080014
:1024D000722A2E17802A14306E2A5430AD002D082F
:1024E000AE07802A2C08003A0319802A013A031902
:1024F000692A033A03196B2A013A03196D2A802AC3
:10250000AE17A5012E080A168A11AF230800831200
:102510000313A40008302402031C912AA001A10186
:102520000800C530A20022089F052408A20002303E
:102530000310A20DFF3E031D982A0310220DA300D5
:1025400023089F040D30A300FB30A200A20BA62A93
:10255000A30BA62AAB2A831203131F151F19AE2A39
:102560001E08A100831603131E0883120313A00084
:10257000080083120313AE0025302E06031DE62A41
:102580002E08D03EAC002C08AD00AD1BD32A2D0880
:10259000803A783E0318D32AA501A50A2D080A1609
:1025A0008A11AF23080083120313A501A50A253061
:1025B0000A168A11AF230A168A1183120313A50182
:1025C000A50A2E080A168A11AF23080083120313E6
:1025D000A501A50A2E080A168A11AF230800831642
:1025E0000313061383120313A301A4012408803AE2
:1025F000FF0080307F02031DFF2A033023020318EF
:1026000008008312031306170330A2008A30A100CA
:102610005630A000A00B0A2BA10B0A2BA20B0A2BF1
:10262000112B8312031306130330A2008A30A1007A
:102630005630A000A00B1A2BA10B1A2BA20B1A2BA1
:10264000212B013083120313A3070318A40A0030BF
:10265000A407F62A0C34123412340C34003400343B
:1026600000340034003404340E341F340E34043487
:102670000034003404340434043404341F340E347D
:10268000043400340A34153411340A340434003468
:10269000003400340A341F341F340E340434003440
:1026A000003400340034003400340034003400348A
:1026B000003400340034003400340034003400347A
:1026C000003400340034003400340034003400346A
:1026D0000034003483120313861C702B8610712B78
:1026E00086141A08F0007008F4003F307B060319C6
:1026F0007C080319902B7C08F000F101F01BF1031A
:1027000001307B07F200F3010318F30AFB1BF3030C
:1027100071087306031D8E2B70087206031D982B1B
:102720000130F0007008FC0740307C060319FC0102
:102730003F307B06031D9E2BFB01A22B0130F000D6
:102740007008FB077408F0007B08903E8400700856
:10275000831780007C0A031D0800FC010800831217
:102760000313AA002A08A60004300310A60CFF3E9B
:10277000031DB52B2608A7002708A8002A080F3933
:10278000A6002608A9002508031DC82B0812C92B7E
:102790000816CA2B8312031308170808F0392804F7
:1027A000A6002608AB002B088800D62BD72B0000EC
:1027B000831203130813DC2BDD2B00008312031399
:1027C00008170808F0392904A6002608AB002B08D2
:1027D0008800EA2BEB2B0000831203130813F02B65
:1027E000F12B00000A168A118B240800FF30FB0031
:1027F00083120313A2002208FC00092C8130052C4F
:102800004030052C2A30052C243083160313990000
:102810002C2C83122108253A0319182C6E3A03191F
:102820001D2C3B3A0319222CF33A0319272C2C2C8C
:102830002008803A0319FE2B2C2C2008003A03199B
:10284000002C2C2C2008803A0319022C2C2C200858
:10285000403A0319042C2C2C8316031318139816D2
:1028600018121815831203139817181318169811B5
:10287000831603138C160B178B1708008312031390
:10288000A601A31F4A2CA209A309A20A0319A30A9D
:10289000A601A60AA11F512CA009A109A00A03198B
:1028A000A10A2008210403197E2CA501A50AA11B59
:1028B000652C01300310A00DA10DFF3E031D5A2C05
:1028C0000130A4002408A507572C21082302031D6A
:1028D0006B2C20082202031C732C2008A202210862
:1028E000031CA303A30201300310A10CA00CFF3EA4
:1028F000031D742C0130A502031D652C2608031945
:10290000862CA209A309A20A0319A30A2308A1007D
:102910002208A000080083120313A4010F30A000B6
:1029200020088316031388048312031388160812E1
:10293000992C8312031308179D2C83120313080884
:10294000A0002008A4002408A00003300310A00D5C
:10295000FF3E031DA62C0310200DA1002108A4009A
:10296000B12C831203130813B52CB62C000083126C
:1029700003130817BB2C831203130808A0002008B8
:10298000A3000F30A0002008A30524082304A00002
:102990002008A40024088039A0002008A200D02C20
:1029A000831203130813D42CD52C000083120313B5
:1029B0002208031D992C8812F030A00020088316ED
:1029C000031388050800FF308316031385000A16D9
:1029D0008A11E0210A168A1100300A168A1187220C
:1029E0000A168A11831203132108B4002008B300C9
:1029F0000330B2008A30B1005630B000B00BFE2C6C
:102A0000B10BFE2CB20BFE2C052D1F3083120313CD
:102A10003402413003193302031C08000617333017
:102A2000B200BC30B1001030B000B00B152DB10BAE
:102A3000152DB20B152D831203130613A5010130BA
:102A40000A168A11AF230A168A1183120313AC01E6
:102A500002300A168A1161220A168A118B308312FB
:102A60000313AC008730AD000A128A15B1210A1693
:102A70008A11033083120313B2008A30B10056303A
:102A8000B000B00B412DB10B412DB20B412D482DA3
:102A900083120313AC01AC0A00300A168A116122BA
:102AA0000A168A11DE3083120313AC008730AD00A2
:102AB0000A128A15B1210A168A11023083120313F1
:102AC000B0003008AC0000300A168A1161220A16E4
:102AD0008A116F3083120313AC008830AD000A12E4
:102AE0008A15B1210A168A11033083120313B0002C
:102AF0003008AC0000300A168A1161220A168A11C9
:102B00002B3083120313AC008930AD000A128A15F2
:102B1000B1210A168A11B43083120313A100883040
:102B2000A2000A128A11DB250A168A110D300A1634
:102B30008A11D8210A168A111A3083120313B2009F
:102B40005E30B1008630B000B00BA42DB10BA42DC7
:102B5000B20BA42D0000DC3083120313A1008630D9
:102B6000A2000A128A11DB250A168A111A30831272
:102B70000313B2005E30B1008630B000B00BBE2D42
:102B8000B10BBE2DB20BBE2D0000A5308312031376
:102B9000A1008630A2000A128A11DB250A168A11CA
:102BA0001A300A168A11D8210A168A111A3083128D
:102BB0000313B2005E30B1008630B000B00BDE2DE2
:102BC000B10BDE2DB20BDE2D000083120313AC011E
:102BD00000300A168A1161220A168A1162308312A5
:102BE0000313AC008830AD000A128A15B1210A1611
:102BF0008A1183120313AC01AC0A00300A168A1141
:102C000061220A168A11F43083120313AC00863055
:102C1000AD000A128A15B1210A168A1102308312F8
:102C20000313B0003008AC0000300A168A1161228C
:102C30000A168A110E3083120313AC008830AD00DF
:102C40000A128A15B1210A168A110330831203135E
:102C5000B0003008AC0000300A168A1161220A1652
:102C60008A11483083120313AC008830AD000A1279
:102C70008A15B1210A168A1183120313A5010130A6
:102C80000A168A11AF230A168A11333083120313EE
:102C9000B200BC30B1001030B000B00B4D2EB10B03
:102CA0004D2EB20B4D2E0800273083120313B200B5
:102CB0000D30B1004B30B000B00B5C2EB10B5C2E70
:102CC000B20B5C2E000083120313A50101300A161B
:102CD0008A11AF230A168A1183120313AC01003044
:102CE0000A168A1161220A168A119C308312031374
:102CF000AC008730AD000A128A15B1210A168A117C
:102D000083120313AC01AC0A00300A168A11612247
:102D10000A168A11AA3083120313AC008830AD0062
:102D20000A128A15B1210A168A11F9308312031387
:102D3000A1008830A2000A128A11DB250A168A1126
:102D40000D300A168A11D8210A168A11033083120F
:102D50000313B2008A30B1005630B000B00BAE2E73
:102D6000B10BAE2EB20BAE2EB52EBE3083120313B6
:102D7000A1008830A2000A128A11DB250A168A11E6
:102D80000D300A168A11D8210A168A1103308312CF
:102D90000313B2008A30B1005630B000B00BCE2E13
:102DA000B10BCE2EB20BCE2ED52E8730831203134D
:102DB000A1008630A2000A128A11DB250A168A11A8
:102DC0000D300A168A11D8210A168A111A30831278
:102DD0000313B2005E30B1008630B000B00BEE2EAF
:102DE000B10BEE2EB20BEE2E0000C1308312031396
:102DF000A1008630A2000A128A11DB250A168A1168
:102E00000D300A168A11D8210A168A1166308312EB
:102E10000313B2007730B1002430B000B00B0E2F96
:102E2000B10B0E2FB20B0E2F00003B308312031399
:102E3000A1008830A2000A128A11DB250A168A1125
:102E40000D300A168A11D8210A168A1133308312DE
:102E50000313B200BC30B1001030B000B00B2E2F05
:102E6000B10B2E2FB20B2E2F7C3083120313A10037
:102E70008830A2000A128A11DB250A168A110D3049
:102E80000A168A11D8210A168A11333083120313C5
:102E9000B200BC30B1001030B000B00B4D2FB10B00
:102EA0004D2FB20B4D2F003083120313A10086303B
:102EB000A2000A128A11DB250A168A11DB3083125E
:102EC0000313A1000030A2000A128A11DB250A16A2
:102ED0008A11F23083120313A1008830A2000A1273
:102EE0008A11DB250A168A11D23083120313A1003E
:102EF0000030A2000A128A11DB250A168A11D2308C
:102F000083120313A1008830A2000A128A11DB2564
:102F10000A168A11C83083120313A1000030A200E0
:102F20000A128A11DB250A168A11A33083120313B1
:102F3000A1008630A2000A128A11DB250A168A1126
:102F40000D300A168A11D8210A168A1133308312DD
:102F50000313B200BC30B1001030B000B00BAE2F84
:102F6000B10BAE2FB20BAE2FBE3083120313A100F4
:102F70008730A2000A128A11DB250A168A110D3049
:102F80000A168A11D8210A168A11FE3083120313F9
:102F9000B200A830B1006130B000B00BCD2FB10B42
:102FA000CD2FB20BCD2F83120313A50101300A16CA
:102FB0008A11AF230A168A1183120313AC01003061
:102FC0000A168A1161220A168A11553083120313D8
:102FD000AC008830AD000A128A15B1210A168A1198
:102FE0001A3083120313B2005E30B1008630B00095
:102FF000B00BF82FB10BF82FB20BF82F0000080020
:02400E007AFF37
:00000001FF
